:100000000C9469010C9488010C9488010C9488016B
:100010000C9488010C9488010C9488010C9488013C
:100020000C9488010C9488010C9488010C9488012C
:100030000C9488010C94CC070C9488010C94B8079C
:100040000C9488010C9488010C9488010C9488010C
:100050000C9488010C9488010C9488010C948801FC
:100060000C9488010C94AB050C9488010C942E061A
:100070000C9488010C9488010C9488010C948507D9
:100080000C9464070C946F070C947A070C949807EF
:100090000C9447070C9488010C9459070C94880120
:1000A0000C9488010C9488010C9488010C948801AC
:1000B0000C9488010C9488010C9488010C9488019C
:1000C0000C9488010C9488010C9488010000211084
:1000D000422063308440A550C660E77008812991B2
:1000E0004AA16BB18CC1ADD1CEE1EFF1311210025A
:1000F00073325222B5529442F772D6623993188302
:100100007BB35AA3BDD39CC3FFF3DEE36224433425
:1001100020040114E664C774A44485546AA54BB551
:1001200028850995EEE5CFF5ACC58DD553367226F9
:1001300011163006D776F6669556B4465BB77AA7A1
:1001400019973887DFF7FEE79DD7BCC7C448E55845
:100150008668A7784008611802282338CCC9EDD9F1
:100160008EE9AFF9488969990AA92BB9F55AD44A99
:10017000B77A966A711A500A333A122AFDDBDCCB41
:10018000BFFB9EEB799B588B3BBB1AABA66C877C65
:10019000E44CC55C222C033C600C411CAEED8FFD91
:1001A000ECCDCDDD2AAD0BBD688D499D977EB66E39
:1001B000D55EF44E133E322E511E700E9FFFBEEFE1
:1001C000DDDFFCCF1BBF3AAF599F788F8891A981A3
:1001D000CAB1EBA10CD12DC14EF16FE18010A1008D
:1001E000C230E3200450254046706760B98398937D
:1001F000FBA3DAB33DC31CD37FE35EF3B1029012DD
:10020000F322D2323542145277625672EAB5CBA548
:10021000A89589856EF54FE52CD50DC5E234C3242C
:10022000A01481046674476424540544DBA7FAB71C
:100230009987B8975FE77EF71DC73CD7D326F2367C
:100240009106B01657667676154634564CD96DC968
:100250000EF92FE9C899E9898AB9ABA944586548CC
:1002600006782768C018E1088238A3287DCB5CDBBC
:100270003FEB1EFBF98BD89BBBAB9ABB754A545A1C
:10028000376A167AF10AD01AB32A923A2EFD0FED88
:100290006CDD4DCDAABD8BADE89DC98D267C076C6C
:1002A000645C454CA23C832CE01CC10C1FEF3EFF5C
:1002B0005DCF7CDF9BAFBABFD98FF89F176E367EBC
:1002C000554E745E932EB23ED10EF01E00020E0605
:1002D0000C0411241FBECFEFD1E2DEBFCDBF12E070
:1002E000A0E0B2E0EEE3F1E200E00BBF02C0079055
:1002F0000D92A434B107D9F714E0A4E4B2E001C030
:100300001D92A336B107E1F70E94DE0B0C949E10FC
:100310000C9400008FB7F894992708958FBF089523
:100320007FB7F8946091B20020915F023091600233
:100330004091610250916202B99B11C08091B3005B
:100340009091B200280F311D411D511D2F5F3F4F6D
:100350004F4F5F4F290F311D411D511D04C0260F06
:10036000311D411D511D872F99278FBFCA01B9012A
:100370000895282F9FB7F894E82FFF27ED59FD4FD8
:1003800080818F3F81F4E0915804E21771F40BC033
:1003900020931D0404C0FF27ED59FD4F20832093B7
:1003A000580420E007C025E005C080911D048F3F60
:1003B00091F7EECF892F99278FBF822F9927089524
:1003C0001F931FB7F89480915704882341F482E06B
:1003D0000E94B901882319F481E080935704812F8A
:1003E00099278FBF1F910895382FFA01422F2D3181
:1003F00018F082E090E008956683872F992785831F
:10040000338721878091490290914A02892B19F004
:1004100085E090E008952FB7F894332785E0809326
:100420004C0210924D02F0934802E093470282E0A2
:1004300090E090934A028093490210924F021092EA
:100440004E02445F40934B022FBF8FB7F894282F82
:100450003327809112038A3011F42FBF19C02FBFA8
:100460009FB7F89480917C02882311F020E006C0A9
:1004700081E080937C0210927D0221E0892F9927F0
:100480008FBF222329F00E94E00180E090E00895D0
:1004900010924A021092490281E090E00895CF93B1
:1004A000DF93DB01FB0135968183892F9927EB01CF
:1004B0008D8384E686838091860290918702892BC2
:1004C00019F085E090E029C070938702609386025E
:1004D000448380912D02882319F480E090E01DC0B0
:1004E0008681EB016D817727762F6627218133275F
:1004F000622B732B10922D02242FAD010E94F40168
:100500009927282F882339F081E080932D021092BB
:10051000870210928602822F9927DF91CF9108954A
:10052000DF92EF92FF920F931F938FB7F894282FCB
:100530003327D22E9091B3008091B20047B3981721
:1005400011F041FF02C02FBF71C080917502882356
:10055000E1F10E949001E0905A02F0905B0200915C
:100560005C0210915D02209122043091230440919D
:100570002404509125046E197F09800B910B62179A
:1005800073078407950720F01092750271E01EC072
:100590002E0D3F1D401F511F80915F029091600200
:1005A000A0916102B0916202281B390B4A0B5B0BD0
:1005B000273E31054105510540F4822F223010F0CD
:1005C00070E005C070E082E002C070E086EE682F47
:1005D00061508091B60083FDFCCF8091B200681716
:1005E00009F46F5F20915F023091600240916102D7
:1005F00050916202DA01C9010196A11DB11D860F59
:10060000911DA11DB11D82179307A407B50710F412
:10061000622F60958091B60083FDFCCF6093B3009C
:10062000DFBE772319F089E00E94B9011F910F9175
:10063000FF90EF90DF900895AFB7F894BB27E1E00B
:10064000E093750260935A0270935B0280935C02A0
:1006500090935D022093220430932304409324045A
:1006600050932504AFBF0E9490020895CF93DF936B
:1006700010922D02A0918602B0918702109721F06E
:100680008091210480FF08C081E080932D0217C073
:1006900081E00E94B90113C0FD0135962481332702
:1006A000ED016D817727762F662781819927682B49
:1006B000792BAD0186810E94F401882349F7DF91EF
:1006C000CF910895809112038A3021F480917002B5
:1006D000843021F081E080934402089584E00E94F8
:1006E000B9011092440208952FB7F89433278093EC
:1006F000C600E0ECF0E08081806480832FBF089525
:10070000FC016115710519F481E090E00895809174
:10071000780290917902892B19F085E090E0089594
:100720007093170460931604F0937902E0937802B3
:10073000109272021092710281E080937302809194
:10074000C00080648093C0008091C1008064809369
:10075000C100808121E030E0309372022093710269
:100760000E94740380E090E008958FB7F894992771
:10077000209155022E7F209355022EE720936E0282
:100780008FBF61E070E08EE692E00E9480039927BF
:100790000895DF92EF92FF920F931F93D82E7A0164
:1007A0008B010E94900129E0D29EF0011124E157B3
:1007B000FD4F6083718382839383E482F582068395
:1007C000178380858E7F826080878AE00E94B901CE
:1007D0001F910F91FF90EF90DF900895ECECF0E007
:1007E0006927660FF11DE60FF11DC895982F802D22
:1007F0003196C89590250895982F809150028823AE
:1008000089F5992379F531E03093500280912E02D9
:100810008093510220914502822F817080935E0265
:10082000809133029091340290935302809352024C
:10083000809146028093540232273170267EE32F46
:10084000FF27EE0FFF1FE15DFD4F808191819093A7
:10085000340280933302232B2093450287E00E94C9
:10086000B90108958091450280FF02C08B7F01C0CD
:100870008D7F8093450208950F931F93082F162FA5
:10088000809170028130D9F0813038F0823009F4E3
:100890004AC0833009F028C159C0002309F458C167
:1008A0001092100410920F04109214031092180466
:1008B0001092740210928B0210928A0239C10023A6
:1008C00009F046C180918A0290918B020E94EE034A
:1008D00090938B0280938A0282E08093700210933F
:1008E0001804143409F000C125C18695869503C00B
:1008F000809145028695817009F0F6C0809145028D
:10090000992311F0846001C0826080934502809138
:100910004502877E886080934502109246028FEFE1
:1009200080932E0215C1002309F0DEC0609374028B
:1009300080918A0290918B020E94EE0390938B0229
:1009400080938A0283E08093700202C18091140335
:100950008F3F09F4C9C0002309F461C0823008F454
:10096000C3C0E0910F04EE2309F4EBC04E2F4150B9
:10097000E42FFF27E15FFB4F82819927382F222741
:10098000442311F4E2E002C0E42FE150FF27E15FCD
:10099000FB4F82819927282B392B80918A029091D5
:1009A0008B022817390709F09FC080E00E94FC03E2
:1009B0003091740280917E0220917F02982F9F5F78
:1009C000963008F090E0921771F0E82FFF27E25878
:1009D000FD4F32838F5F80937E02863010F010923D
:1009E0007E020E94E0011092100410920F0494E025
:1009F00090937002109214031092180410927402D3
:100A000010928B0210928A02809155028D7F809302
:100A1000550280914402882309F49AC084C0823030
:100A200008F44EC0E0911004FF27E15FFB4F828184
:100A3000482F5527342F20914502822F8695869581
:100A40008695837099278130910519F00297F9F402
:100A50000EC0277E206120934502442311F485E0D7
:100A600001C080E08093460230932E0210C0809136
:100A700046028F3260F4E0913302F0913402E80FC5
:100A8000F11D4083809146028F5F809346028091E2
:100A90001004E82FFF27E15FFB4F62818F5F809397
:100AA0001004833010F010921004772780918A028E
:100AB00090918B020E94EE0390938B0280938A02A6
:100AC00080910F04E82FFF27E15FFB4F12838F5FB8
:100AD00080930F04833010F010920F048091140360
:100AE0008F5F8093140334C01092100410920F048F
:100AF00014E01093700210921403109218041092D4
:100B0000740210928B0210928A02809155028D7F9E
:100B10008093550281E00E94FC0380914402882367
:100B200029F0109370020E94620312C0002381F02A
:100B300081E009CF80914502982F917080FDD5CE3C
:100B4000D7CE809113049927382F222742E01CCF5B
:100B50001F910F9108951F920F920FB60F921124BB
:100B60002F933F934F935F936F937F938F939F93B5
:100B7000AF93BF93EF93FF938091C00087FF42C074
:100B80006091C600E0918C02F0918D02309719F1CE
:100B90008091550490915604E80FF91F60830196E7
:100BA000909356048093550420915B0430915C042B
:100BB0008217930738F110928D0210928C02809167
:100BC00011038330F9F08091C1008F778093C100C9
:100BD0001092110317C06E3719F460E081E010C065
:100BE000809155026D3721F48260809355020AC0CE
:100BF00081FF05C08D7F8093550280E2682780E0E9
:100C00000E943C04FF91EF91BF91AF919F918F9112
:100C10007F916F915F914F913F912F910F900FBEF8
:100C20000F901F901895982F8D57823068F48091FF
:100C3000550281608093550280E2892780931303D7
:100C40008DE780936E0202C090936E0261E070E0C7
:100C50008EE692E00E9480039927089578941F926F
:100C60000F920FB60F921124FF920F931F932F93A1
:100C70003F934F935F936F937F938F939F93AF9324
:100C8000BF93CF93DF93EF93FF9320917102309145
:100C9000720280911604909117042817390780F486
:100CA000E0917802F0917902E20FF31F80812F5FCB
:100CB0003F4F30937202209371020E947403D1C09F
:100CC0001092790210927802109273028091C10002
:100CD0008F7B8093C100FFB6F8948091550280FF0E
:100CE0000EC08E7F809355028091130380936E0215
:100CF00061E070E08EE692E00E948003AFC08091D8
:100D00001203843009F48CC0853040F4823021F124
:100D10008330B8F5813009F09CC00DC0863009F4ED
:100D20008DC0863008F483C0873009F48EC08830C7
:100D300009F08FC091C0809177020E941306082F9E
:100D400083E080931203609177028091590490911F
:100D50005A040E94EE0310C0809120040E941306E2
:100D6000082F83E08093120360912004809159043E
:100D700090915A040E94EE0390935A048093590470
:100D800066C0E0918E02FF27EE0FFF1FE558FD4F72
:100D900080810E941306082F10918E02C12FDD273B
:100DA000FE01EE0FFF1FE558FD4F60818091590451
:100DB00090915A040E94EE0390935A048093590430
:100DC000209176022F5F20937602113039F58091C1
:100DD0004C02E0914702F0914802E80FF11DE081DA
:100DE0008F5F80934C0290914B02981730F482E011
:100DF00080937C0240E050E002C04E2F5527DE0178
:100E0000AA0FBB1FFD01E658FD4F8081823031F0F3
:100E10002F3F21F0A558BD4F4C9319C084E012C05C
:100E2000809159040E941306082F85E00BC0809121
:100E30005A040E941306082F86E004C00E94B503DE
:100E4000082F87E08093120302C088E003C00023CC
:100E500029F089E0809312030E94E0018F2D9927E9
:100E60008FBFFF91EF91DF91CF91BF91AF919F9194
:100E70008F917F916F915F914F913F912F911F9132
:100E80000F91FF900F900FBE0F901F9018951F921B
:100E90000F920FB60F9211248F938091C80087FF95
:100EA00002C08091CE008F910F900FBE0F901F90C7
:100EB000189578941F920F920FB60F9211240F90ED
:100EC0000FBE0F901F90189578941F920F920FB637
:100ED0000F9211240F900FBE0F901F9018957894C9
:100EE0001F920F920FB60F9211240F900FBE0F900A
:100EF0001F90189578941F920F920FB60F9211249D
:100F00000F900FBE0F901F90189578941F920F921C
:100F10000FB60F9211248F939F938091960090911A
:100F200097009F918F910F900FBE0F901F90189573
:100F300078941F920F920FB60F9211242F933F9324
:100F40008F939F932FB7F8943327809188029091C5
:100F50008902019690938902809388022FBF9F9106
:100F60008F913F912F910F900FBE0F901F9018956A
:100F70001F920F920FB60F9211248F938091B000A1
:100F80008093B0008091B60081FDFCCF8F910F90CF
:100F90000FBE0F901F9018951F920F920FB60F92D1
:100FA00011242F933F934F935F936F937F938F936E
:100FB0009F93AF93BF93EF93FF938091B000809383
:100FC000B0008091B60081FDFCCF8091B3009927DD
:100FD0000196AA27BB2720915F02309160024091C1
:100FE000610250916202280F391F4A1F5B1F209334
:100FF0005F023093600240936102509362027894E2
:101000000E949002FF91EF91BF91AF919F918F91BC
:101010007F916F915F914F913F912F910F900FBEF4
:101020000F901F901895809158028C3118F04CE168
:1010300050E002C0482F55278CE1E2E3F4E0119222
:101040008A95E9F7909158028091560220E030E0AD
:10105000A2E3B4E00FC0E82FFF27EB5EFC4FE08176
:10106000992329F08F5F8A3F09F480E09150ED9336
:101070002F5F3F4F2417350771F7909358028093E5
:1010800056024CE166E274E08FEF9FEF0E944F0240
:10109000882319F088E00E94B9010895662351F46D
:1010A00080915802882319F00E9413080895109225
:1010B0005902089588E00E94B90108958FB7F89405
:1010C000282F332780915902813021F42FBF80E0EF
:1010D00090E0089590E080915802882309F491E00F
:1010E000992321F02FBF81E090E0089581E0809363
:1010F00059022FBF0E94130880E090E00895AF923C
:10110000BF92CF92DF92EF92FF920F931F93CF93F4
:10111000DF935B016C01C0E0D0E0EFE8F2E06085B6
:1011200061FF70C02081318142815381E480F5806C
:1011300006811781D601C501821B930BA40BB50B49
:101140008E159F05A007B10708F45CC060FF03C0BF
:101150006D7F608708C02E0D3F1D401F511F2083EB
:10116000318342835383C130D1F0C13020F0C2308B
:1011700009F04EC028C00E9490019F938F937F93E7
:101180006F9380E092E09F938F930E94BF0D0E9427
:101190005E082FB7F894332782B194E027C00E94ED
:1011A00090019F938F937F936F938FE092E09F9333
:1011B0008F930E94BF0D0E945E082FB7F8943327CB
:1011C00082B192E013C00E9490019F938F937F930E
:1011D0006F938EE192E09F938F930E94BF0D0E94C8
:1011E0005E082FB7F894332782B191E0892782B93E
:1011F0002FBF8DB79EB706960FB6F8949EBF0FBE51
:101200008DBF06C021963996C430D10509F087CF2D
:101210008AE00E94B901DF91CF911F910F91FF9059
:10122000EF90DF90CF90BF90AF9008951F93182F4D
:1012300080915902882349F4809158028D3728F013
:1012400081E0809359020E9413088FB7F894282FE9
:101250003327909158029A3FA8F480915702E82FC3
:10126000FF27EB5EFC4F10838F5F809357028A3F0E
:1012700011F4109257029F5F909358022FBF80E0A5
:1012800090E003C02FBF8FEF9FEF1F910895AF92A3
:10129000BF92CF92DF92EF92FF920F931F93853010
:1012A00009F471C1863090F4823009F460C0833053
:1012B00030F48823F1F0813009F05AC244C0833001
:1012C00009F43AC1843009F053C25BC1883009F493
:1012D000B8C1893038F4863009F460C1873009F02C
:1012E00047C28DC1893009F4BAC18A3009F040C2C1
:1012F000E9C180912104882309F43AC290E011E009
:1013000020912104822F8123C1F0E92FFF27EE0FC6
:10131000FF1FEA57FD4F4081518111821082812FBA
:101320008095282320932104992339F463E0CA018E
:101330000E944E08110F91E0E3CF9F5F983008F0B4
:1013400017C2110FDDCF10912D02E12FFF27EE0FF5
:10135000FF1FEA57FD4FE080F180118210820E944A
:101360003603112309F004C261E0C70145C18FB7FC
:10137000F894109257042091120340E0283009F4A9
:1013800041E030E0293009F431E0442311F4332303
:1013900051F010921203E0918E02FF27EE0FFF1F13
:1013A000E658FD4F108299278FBF442311F4332351
:1013B00031F19FB7F894809120048F5F80932004CF
:1013C00080917702833479F420917F0280917E02AC
:1013D000821779F0822F8F5F80937F02863048F0EA
:1013E00010927F0206C0A0E0442309F4A1E071E05E
:1013F00002C070E0A0E0892F99278FBF06C022238A
:1014000011F0FF246DC070E0A0E08FB7F894992729
:10141000209144028FBF222341F08FB7F89499277F
:101420002AE0209312038FBF42C08FB7F894992708
:1014300060917A0240917C028FBF8FB7F894282F79
:10144000332750E090917E0280917F02981709F433
:1014500051E02FBF552341F5662331F55FB7F8946E
:1014600082E080937A028FB7F894282F332740E0E8
:1014700090917E0280917F02981709F441E02FBF7E
:10148000442311F080E006C0E0917F02FF27E2587C
:10149000FD4F828180937B0283E4809377021092D8
:1014A0008E02852F99270EC04150423010F0FF2444
:1014B0000CC08FB7F894992725E42093770221E098
:1014C00020938E028FBF91E0F92E772349F08FB7DA
:1014D000F8949927A0934D028FBF86E00E94B9012E
:1014E0008FB7F894082F1127809112038A3021F4C6
:1014F0000E9462030FBF3CC10FBFFF2009F438C137
:101500002FB7F894332710925A041092590410926E
:10151000760281E0809312032FBF0E94B5038823D7
:1015200009F426C18FB7F894992729E02093120374
:101530008FBF0E94E0011CC18091C1008F7B80930E
:10154000C1008091C1008F778093C1001092110378
:10155000109273028091C10088608093C1008091D5
:10156000C10080618093C1008091C1008068809338
:10157000C1008FB7F894992710921203109270024D
:101580005EC085E069C08091C100877F8093C10003
:101590008091C1008F7E8093C100EAC010924A0200
:1015A000109249028FB7F8949927F0904D028FBF9F
:1015B00080914E02882311F083E0F82E209147029B
:1015C0003091480280914F02882309F0D1C0809168
:1015D0002D02882309F0CCC0009186021091870269
:1015E0000217130709F0C4C01092870210928602F6
:1015F0000E9436036F2DC8010E944E08B9C08FB7F4
:10160000F8949927209152023091530240915E0242
:101610008FBF8FB7F894E42FFF27EE0FFF1FE15D18
:10162000FD4F3183208320914502442311F02B7F0D
:1016300001C02D7F209345021092500299278FBF41
:1016400097C04CE166E274E08FEF9FEF0E944F027B
:10165000882309F48DC088E00E94B90189C0809177
:101660006F02882361F52091190430911A0440918A
:101670001B0450911C04EFB7F894FF2760915A02A5
:1016800070915B0280915C0290915D02E090220477
:10169000F090230400912404109125046E0D7F1D09
:1016A000801F911FEFBF2093190430931A044093B9
:1016B0001B0450931C0410926F020E941C030E9492
:1016C000900142C00E9490015B016C018FB7F894B9
:1016D0009927109275028FBF60E01FEFE12E1FEF78
:1016E000F12E1FEF012F1FE7112FEFE8F2E08085A9
:1016F00081FF1CC080819181A281B381A6019501E7
:10170000281B390B4A0B5B0BDA01C9012481358197
:1017100046815781281B390B4A0B5B0B2E153F0561
:10172000400751071CF479018A0161E0399632E0E3
:10173000E33BF307E1F66623D9F01E141F041006FD
:1017400011062CF0C601B5010E947F0811C0E0927D
:101750001904F0921A0400931B0410931C0481E0F6
:1017600080936F02A8019701C601B5010E941C0376
:101770001F910F91FF90EF90DF90CF90BF90AF90AF
:10178000089580911D048F3FB1F0282F3327F90170
:10179000ED59FD4F808180931D048F3F11F480939C
:1017A00058048FEF80832F3F31F0822F0E9447092A
:1017B00081E090E0089580E090E00895FF920F931B
:1017C0001F93FFB6F89414BE88E10FB6F894809387
:1017D0006000109260000FBE4BE050E06FEF70E0D1
:1017E00083E692E00E94B80D8FEF80931D048093F2
:1017F000580481E08093810080E28093B60083E00A
:101800008093B10080918400909185004AE72091F7
:101810008400309185002817390708F4415044238B
:1018200011F0C901F4CF9091B2008091B2008917F4
:10183000E1F320918400309185009091B200809175
:10184000B2008917E1F38091840090918500821B9A
:10185000930B4096A5E096958795AA95E1F790930E
:101860001F0480931E041092B1008091B1008093F8
:101870008100809181008093B6001092B200109296
:101880008500109284008FEF87BB87B386BB809161
:10189000B6008571E1F70A9A099A089A129A119A84
:1018A000109A18B88FEF87B90C9814981092950079
:1018B00010929400809171008160809371008091FA
:1018C0009100887F8260809391000E94C10B8823E1
:1018D000E1F78091B60080628093B6008091B600F7
:1018E00081FDFCCF82E08093B0008091B60080FD46
:1018F000FCCF83E08093B1008091B60083FDFCCFE4
:1019000086EE8093B30080917000826080937000B7
:101910000E94900285E392E09093600480935F04BC
:1019200012E006E060911E0470911F048827992739
:10193000FCE0660F771F881F991FFA95D1F720E00A
:1019400031EE40E050E00E94960D2150304020934F
:10195000C400832F99278093C5001093C000009383
:10196000C2001092C1002093CC008093CD00109350
:10197000C8000093CA001092C90084E490E09093DC
:1019800015048093140410927A0210927C028AE06B
:101990008093120310927602109277021092200424
:1019A00010925A04109259041092570410928E0209
:1019B0001092100410920F0484E080937002109231
:1019C0001403109218041092740210928B02109259
:1019D0008A0210927F0210927E02109259020E9497
:1019E000C10B8823E1F78F2D99278FBF78948FB78C
:1019F000F894282F3327922F809112038A3031F0E8
:101A000080917002843011F02FBF04C09FBF83E02B
:101A10000E94B9014AEF50E060E070E080E00E946F
:101A2000C90344EF51E060E070E081E00E94C90327
:101A300048EE53E060E070E082E00E94C9038FB797
:101A4000F894482F552757C08091700099278370CC
:101A50009070892B19F4E5E0F0E014C08091B60095
:101A60008A71E1F78091B3009091B200891B8C30AC
:101A700038F08091B200853F18F4E3E0F0E002C056
:101A8000E2E0F0E080916E00867009F580916F00D1
:101A90008E72E9F4809171008E72C9F40CB407FC67
:101AA00016C08091C100887191F48091C90088713D
:101AB00071F48091BC0082FD0AC080917A0087FF9A
:101AC00003C081E090E005C085E090E002C080E0C6
:101AD00090E023B78E1708F4E82FFF27E453FD4F5B
:101AE000E491207F2160E22BE3BF78948895F894FD
:101AF00083B78E7F83BF80911D048F3F09F4A4CFED
:101B0000282F3327F901ED59FD4F808180931D0463
:101B10008F3F11F4809358048FEF80832F3F09F497
:101B200093CF4FBF822F0E94470989CFA1E21A2E7F
:101B3000AA1BBB1BFD010DC0AA1FBB1FEE1FFF1F71
:101B4000A217B307E407F50720F0A21BB30BE40BC1
:101B5000F50B661F771F881F991F1A9469F7609508
:101B60007095809590959B01AC01BD01CF010895C2
:101B7000DC0101C06D9341505040E0F70895A2E0B0
:101B8000B0E0E5ECFDE00C947710FE013796619132
:101B90007191FA83E983AF0180915F0490916004B1
:101BA0000E94D60DE2E022960C949310ABE0B0E0D8
:101BB000ECEDFDE00C9469103C014B016A01FC0165
:101BC00017821682838181FD03C08FEF9FEFDAC1F8
:101BD000F3013381F40133FD859133FF81914F018E
:101BE000882309F4CCC1853239F433FD859133FF64
:101BF00081914F01853229F4B30199270E94DC0FAE
:101C0000E7CF00E0442455244AE00032B0F48B32A0
:101C100069F08C3228F4803251F0833271F40BC0B9
:101C20008D3239F0803349F4016028C002600460CD
:101C300025C0086023C0006121C007FD29C0282FEE
:101C400020532A3078F406FF06C0549EC0011124A8
:101C5000522E580E13C0449EC0011124422E480E2D
:101C600000620CC08E3221F406FD89C1006406C0FA
:101C70008C3611F4006802C0883651F4F40133FD4B
:101C8000859133FF81914F01882309F46FC0BDCF47
:101C9000982F8554833018F08052833038F424E034
:101CA00030E0C20ED31E8FE389830FC0933631F02C
:101CB000933799F0933509F05BC023C0F60180811A
:101CC000898322E030E0C20ED31E7E010894E11C1D
:101CD000F11C51E0A52EB12C12C0F601E080F1807C
:101CE00006FD03C06FEF7FEF02C0652D772722E06E
:101CF00030E0C20ED31EC7010E94D10F5C010F77E6
:101D000013C0F601E080F18006FD03C06FEF7FEFA6
:101D100002C0652D772722E030E0C20ED31EC70136
:101D20000E94C60F5C01006803FF07C01BC0B3011F
:101D300080E290E00E94DC0F4A94842D9927A81637
:101D4000B906A8F30FC0F70107FD859107FF819140
:101D50007F01B30199270E94DC0F41104A94089437
:101D6000A108B108A114B10471F706C190E03EC00A
:101D7000943611F0993691F507FF0AC0F60160819B
:101D800071818281938124E030E0C20ED31E0DC0A8
:101D9000F601808191819C01B901882777FD8095AA
:101DA000982F42E050E0C40ED51E4FE6B42EB0226C
:101DB00097FF09C090958095709561957F4F8F4FE3
:101DC0009F4F50E8B52A8E010F5F1F4F2AE030E089
:101DD000A8010E940910A82EA01A4DC0953731F411
:101DE0003FEEF32EF0222AE030E023C029EFF22E5E
:101DF000F0229F3661F0903720F4983509F0BFC08B
:101E000012C0903739F0983709F0B9C005C028E002
:101E100030E00FC080E1F82AF4FE02C094E0F92A15
:101E200020E130E006C0F4FE02C0E6E0FE2A20E138
:101E300032E0F7FE0AC0F6016081718182819381F0
:101E400044E050E0C40ED51E0BC0F60180819181A4
:101E5000AC01BA0188279927E2E0F0E0CE0EDF1E40
:101E60008E010F5F1F4FA8010E940910A82EA01A13
:101E70008FE7B82EBF20B6FE10C0FEEFBF22A5141C
:101E800060F42B2D332724FF1AC022FF02C0052D3A
:101E900009C02FEEB222052D01C00A2D2B2D3327AC
:101EA00024FF0EC0FE01EA0DF11D8081803319F47C
:101EB00039EEB32209C00F5F22FF06C004C0052D12
:101EC000822F867809F00F5FEB2CFF24E3FC14C00F
:101ED000E0FE0FC0041510F05A2C0BC0542C501A01
:101EE0005A0C042D06C0B30180E290E00E94DC0F82
:101EF0000F5F0415C0F304C0041510F4401A01C0AC
:101F00004424E4FE10C0B30180E390E00E94DC0FA3
:101F1000E2FE1EC0E1FE03C088E590E002C088E753
:101F200090E0B3010CC08E2D867891F0E1FE02C0E6
:101F30008BE201C080E2B7FC8DE2B30199270E94D9
:101F4000DC0F06C0B30180E390E00E94DC0F5A94DE
:101F5000A514C0F3AA94FE01EA0DF11D8181B3011D
:101F600099270E94DC0FAA2039F0F4CFB30180E258
:101F700090E00E94DC0F4A944420C1F729CEF3017F
:101F800086819781E0E12B960C948510FC010590E9
:101F9000615070400110D8F7809590958E0F9F1F6B
:101FA0000895FC016150704001900110D8F78095B0
:101FB00090958E0F9F1F08950F931F93CF93DF93DC
:101FC0008C01EB018B81992781FF1BC082FF0DC023
:101FD0002E813F818C819D812817390764F4E88127
:101FE000F9810193F983E88306C0E885F985802F9C
:101FF0000995892B31F48E819F8101969F838E8371
:1020000002C00FEF1FEFC801DF91CF911F910F9119
:102010000895FA01AA27283051F1203181F1E8947E
:102020006F936E7F6E5F7F4F8F4F9F4FAF4FB1E0CB
:102030003ED0B4E03CD0670F781F891F9A1FA11DC6
:10204000680F791F8A1F911DA11D6A0F711D811DC7
:10205000911DA11D20D009F468943F912AE0269F8C
:1020600011243019305D3193DEF6CF010895462FEB
:102070004770405D4193B3E00FD0C9F7F6CF462FCC
:102080004F70405D4A3318F0495D31FD4052419335
:1020900002D0A9F7EACFB4E0A695979587957795F2
:1020A0006795BA95C9F700976105710508959B0179
:1020B000AC010A2E06945795479537952795BA9502
:1020C000C9F7620F731F841F951FA01D08952F92DB
:1020D0003F924F925F926F927F928F929F92AF92B8
:1020E000BF92CF92DF92EF92FF920F931F93CF9305
:1020F000DF93CDB7DEB7CA1BDB0B0FB6F894DEBF9C
:102100000FBECDBF09942A88398848885F846E84C1
:102110007D848C849B84AA84B984C884DF80EE800B
:10212000FD800C811B81AA81B981CE0FD11D0FB614
:0E213000F894DEBF0FBECDBFED010895FFCFC6
:10213E0054696D657220303A20256C752E0A005454
:10214E00696D657220313A20256C752E0A0054692E
:10215E006D657220323A20256C752E0A0001FFB390
:10216E0002E202B3020000000200000000160900A5
:04217E00000000005D
:00000001FF
