S01700006275696C642F697269732F6D61696E2E7372656343
S11300000C947E010C949D010C949D010C949D0113
S11300100C949D010C949D010C949D010C949D01E4
S11300200C949D010C949D010C949D010C949D01D4
S11300300C949D010C941D0A0C949D010C942209AE
S11300400C9499120C94CF120C94D9090C94E409D1
S11300500C94EF090C949D010C949D010C949D014A
S11300600C9436090C9415070C949D010C94980774
S11300700C949D010C949D010C949D010C94EF082B
S11300800C94CE080C94D9080C94E4080C9402093E
S11300900C94B1080C949D010C94C3080C949D011C
S11300A00C949D010C949D010C949D010C949D0154
S11300B00C949D010C949D010C949D010C949D0144
S11300C00C949D010C949D010C949D011C154F15DD
S11300D0631548166D166F167A16AB16CD16DB1619
S11300E00E175B178C17A81706189D189519F91881
S11300F00D192415C01900002110422063308440DA
S1130100A550C660E770088129914AA16BB18CC1E2
S1130110ADD1CEE1EFF13112100273325222B55259
S11301209442F772D662399318837BB35AA3BDD332
S11301309CC3FFF3DEE36224433420040114E66429
S1130140C774A44485546AA54BB528850995EEE582
S1130150CFF5ACC58DD55336722611163006D77639
S1130160F6669556B4465BB77AA719973887DFF7D2
S1130170FEE79DD7BCC7C448E5588668A778400801
S1130180611802282338CCC9EDD98EE9AFF9488922
S113019069990AA92BB9F55AD44AB77A966A711A99
S11301A0500A333A122AFDDBDCCBBFFB9EEB799B72
S11301B0588B3BBB1AABA66C877CE44CC55C222CE9
S11301C0033C600C411CAEED8FFDECCDCDDD2AADC2
S11301D00BBD688D499D977EB66ED55EF44E133E79
S11301E0322E511E700E9FFFBEEFDDDFFCCF1BBF12
S11301F03AAF599F788F8891A981CAB1EBA10CD1EC
S11302002DC14EF16FE18010A100C230E3200450F3
S1130210254046706760B9839893FBA3DAB33DC366
S11302201CD37FE35EF3B1029012F322D232354243
S1130230145277625672EAB5CBA5A89589856EF5F6
S11302404FE52CD50DC5E234C324A0148104667493
S1130250476424540544DBA7FAB79987B8975FE746
S11302607EF71DC73CD7D326F2369106B0165766E3
S11302707676154634564CD96DC90EF92FE9C899CE
S1130280E9898AB9ABA94458654806782768C01833
S1130290E1088238A3287DCB5CDB3FEB1EFBF98BA6
S11302A0D89BBBAB9ABB754A545A376A167AF10A83
S11302B0D01AB32A923A2EFD0FED6CDD4DCDAABDB6
S11302C08BADE89DC98D267C076C645C454CA23CD3
S11302D0832CE01CC10C1FEF3EFF5DCF7CDF9BAF86
S11302E0BABFD98FF89F176E367E554E745E932E23
S11302F0B23ED10EF01E00020E060C0411241FBEE5
S1130300CFEFD1E2DEBFCDBF12E0A0E0B2E0E6E184
S1130310F2E400E00BBF02C007900D92A233B107D4
S1130320D9F715E0A2E3B2E001C01D92A93BB107E1
S1130330E1F70E94031A0C940A210C9400008FB771
S1130340F894992708958FBF0895282F9FB7F8949C
S1130350E82FFF27EC59FD4F80818F3F81F4E09116
S1130360A705E21771F40BC02093D50404C0FF273E
S1130370EC59FD4F20832093A70520E007C025E01A
S113038005C08091D5048F3F91F7EECF892F99272F
S11303908FBF822F992708951F931FB7F8948091D8
S11303A0A105882341F482E00E94A501882319F461
S11303B081E08093A105812F99278FBF1F91089514
S11303C0382FFA01422F2D3118F082E090E0089581
S11303D06683872F992785833387218780913A0203
S11303E090913B02892B19F085E090E008952FB796
S11303F0F894332785E080933D0210923E02F093F7
S11304003902E093380282E090E090933B028093BB
S11304103A021092400210923F02445F40933C0221
S11304202FBF8FB7F894282F3327809184038A3005
S113043011F42FBF19C02FBF9FB7F8948091A10268
S1130440882311F020E006C081E08093A10210927D
S1130450A20221E0892F99278FBF222329F00E942D
S1130460CC0180E090E0089510923B0210923A0291
S113047081E090E00895CF93DF93DB01FB01359693
S11304808183892F9927EB018D8384E6868380916C
S11304900E0390910F03892B19F085E090E029C099
S11304A070930F0360930E03448380911102882399
S11304B019F480E090E01DC08681EB016D817727FF
S11304C0762F662721813327622B732B109211021A
S11304D0242FAD010E94E0019927282F882339F0A9
S11304E081E08093110210920F0310920E03822F69
S11304F09927DF91CF910895882319F08CB58064F2
S113050002C08CB58F7B8CBD0895882319F08CB5FF
S1130510806802C08CB58F778CBD08950F931F93AC
S113052080E00E947C020FB7F8941127229A239846
S1130530219A209A8CB580618CBD80E00E9485024E
S11305408CB5877F8CBD8CB58B7F8CBD81E00E9480
S11305507C028DB581608DBD8CB58C7F8CBD0FBF49
S11305601F910F910895FB0121E030E002C0220F9A
S1130570331F8A95E2F784A5822B84A708958FB749
S1130580F8942091910230919202409193025091FB
S11305909402E0918400F0918500B09B08C02F5F25
S11305A03F4F4F4F5F4FE0918400F09185009927B2
S11305B08FBFC901772766279F0144275527622BE0
S11305C0732B842B952B0895FC0182819927982FF6
S11305D0882721813327822B932B75E09695879565
S11305E07A95E1F7817090700895AC01EFB7F894B3
S11305F02091840030918500C901841B950B0396DA
S11306008617970720F0B9016D5F7F4F02C0640F12
S1130610751F6115710511F461E070E0615070405F
S1130620709389006093880082E086BB80916F009C
S1130630826080936F008E2F99278FBF0895CF9388
S1130640DF93EC010E94E402882339F18A81298135
S11306509927982F88273327822B932B87749C7C88
S113066081549848D1F48F814E812FB7F894332761
S11306706091190270911A022FBF20E09927982FD8
S113068088275527842B952B8617970709F021E097
S113069081E02827822F992702C080E090E0DF9133
S11306A0CF910895FB0121E030E002C0220F331FF7
S11306B08A95E2F784A5822399270895EF92FF9201
S11306C00F931F937C018FB7F894992700918703A8
S11306D0109188030F5E1E4F1093880300938703C5
S11306E0015111408FBF8FE00E94A501C801B701DD
S11306F00E94CF1D8A5D9E4F1F910F91FF90EF9036
S113070008950F931F93982F1FB7F89480914C026C
S1130710823099F580912102891779F580911F0221
S113072020E030E08F3F11F421E030E0232BF1F49E
S11307309FEF909321028F3F19F42FEF30E00DC00B
S1130740282F3327F901E756FD4F808180931F023C
S11307508F3F11F490932002908320939B0281E0B9
S113076080934C0282E10E94A50105C08FEF809323
S1130770210210924C0201E001C000E0812F992770
S11307808FBF1FB7F89480914C02882311F40E9404
S11307907C02812F99278FBF90E0013009F491E00A
S11307A081E09827892F99271F910F910895EF923F
S11307B00F931F93AE2D99E0899FF0011124E95EF8
S11307C0FC4F4083518362837383048315832683A0
S11307D03783A17080858E7F8A2B826080878AE030
S11307E00E94A5011F910F91EF9008957FB7F8948F
S11307F06091B20020915F023091600240916102E9
S113080050916202B99B11C08091B3009091B200E3
S1130810280F311D411D511D2F5F3F4F4F4F5F4F1B
S1130820290F311D411D511D04C0260F311D411DCD
S1130830511D872F99278FBFCA01B9010895DF92EF
S1130840EF92FF920F931F938FB7F894282F3327BB
S1130850D22E9091B3008091B20047B3981711F053
S113086041FF02C02FBF71C080918B028823E1F148
S11308700E94F603E0905702F0905802009159024A
S113088010915A022091DB043091DC044091DD0484
S11308905091DE046E197F09800B910B6217730768
S11308A08407950720F010928B0271E01EC02E0D74
S11308B03F1D401F511F80915F0290916002A091E3
S11308C06102B0916202281B390B4A0B5B0B273E75
S11308D031054105510540F4822F223010F070E0BB
S11308E005C070E082E002C070E086EE682F6150BF
S11308F08091B60083FDFCCF8091B200681709F4A3
S11309006F5F20915F0230916002409161025091CB
S11309106202DA01C9010196A11DB11D860F911D64
S1130920A11DB11D82179307A407B50710F4622F08
S113093060958091B60083FDFCCF6093B300DFBE69
S1130940772319F089E00E94A5011F910F91FF9070
S1130950EF90DF900895AFB7F894BB27E1E0E09300
S11309608B026093570270935802809359029093BC
S11309705A022093DB043093DC044093DD0450934B
S1130980DE04AFBF0E941F040895CF93DF9310923B
S11309901102A0910E03B0910F03109721F08091E2
S11309A0DA0480FF08C081E08093110217C081E05F
S11309B00E94A50113C0FD01359624813327ED0162
S11309C06D817727762F662781819927682B792B6C
S11309D0AD0186810E94E001882349F7DF91CF9120
S11309E00895809184038A3021F4809186028430B2
S11309F021F081E080933502089584E00E94A501EE
S1130A001092350208952FB7F89433278093C600C7
S1130A10E0ECF0E08081806480832FBF0895FC01C6
S1130A206115710519F481E090E0089580919C02AC
S1130A3090919D02892B19F085E090E008957093C0
S1130A40C3046093C204F0939D02E0939C0210924D
S1130A5088021092870281E0809389028091C0000D
S1130A6080648093C0008091C10080648093C10041
S1130A70808121E030E030938802209387020E9435
S1130A80030580E090E008958FB7F89499272091AA
S1130A9046022E7F209346022EE7209379028FBFD1
S1130AA061E070E089E792E00E940F0599270895BC
S1130AB0E6EFF0E06927660FF11DE60FF11DC8951A
S1130AC0982F802D3196C89590250895982F809160
S1130AD04102882389F5992379F531E03093410265
S1130AE0809112028093420220913602822F8170FB
S1130AF080935D02809117029091180290934402B2
S1130B0080934302809137028093450232273170EB
S1130B10267EE32FFF27EE0FFF1FED5EFD4F808142
S1130B2091819093180280931702232B209336020D
S1130B3087E00E94A50108958091360280FF02C0DB
S1130B408B7F01C08D7F8093360208950F931F938E
S1130B50082F162F809186028130D9F0813038F029
S1130B60823009F44AC0833009F028C159C00023F7
S1130B7009F458C11092BB041092BA0410928A036B
S1130B801092CE0410928A02109213031092120350
S1130B9039C1002309F046C18091120390911303D7
S1130BA00E945805909313038093120382E080936C
S1130BB086021093CE04143409F000C125C1869531
S1130BC0869503C0809136028695817009F0F6C03F
S1130BD080913602992311F0846001C08260809371
S1130BE0360280913602877E8860809336021092A6
S1130BF037028FEF8093120215C1002309F0DEC083
S1130C0060938A0280911203909113030E94580505
S1130C10909313038093120383E08093860202C1AE
S1130C2080918A038F3F09F4C9C0002309F461C08D
S1130C30823008F4C3C0E091BA04EE2309F4EBC097
S1130C404E2F4150E42FFF27E654FB4F8281992712
S1130C50382F2227442311F4E2E002C0E42FE150AC
S1130C60FF27E654FB4F82819927282B392B80914B
S1130C701203909113032817390709F09FC080E0ED
S1130C800E94660530918A02809102032091030339
S1130C90982F9F5F963008F090E0921771F0E82F3C
S1130CA0FF27EE5FFC4F32838F5F80930203863011
S1130CB010F0109202030E94CC011092BB04109217
S1130CC0BA0494E09093860210928A031092CE04A0
S1130CD010928A021092130310921203809146021A
S1130CE08D7F8093460280913502882309F49AC04F
S1130CF084C0823008F44EC0E091BB04FF27E65460
S1130D00FB4F8281482F5527342F20913602822FA2
S1130D10869586958695837099278130910519F07B
S1130D200297F9F40EC0277E2061209336024423F3
S1130D3011F485E001C080E0809337023093120201
S1130D4010C0809137028F3260F4E0911702F09165
S1130D501802E80FF11D4083809137028F5F809362
S1130D6037028091BB04E82FFF27E654FB4F6281D2
S1130D708F5F8093BB04833010F01092BB047727FD
S1130D8080911203909113030E94580590931303CA
S1130D90809312038091BA04E82FFF27E654FB4F97
S1130DA012838F5F8093BA04833010F01092BA04D8
S1130DB080918A038F5F80938A0334C01092BB04AE
S1130DC01092BA0414E01093860210928A031092CF
S1130DD0CE0410928A02109213031092120380918F
S1130DE046028D7F8093460281E00E9466058091D1
S1130DF03502882329F0109386020E94F10412C060
S1130E00002381F081E009CF80913602982F917000
S1130E1080FDD5CED7CE8091BE049927382F2227C6
S1130E2042E01CCF1F910F9108951F920F920FB6AD
S1130E300F9211242F933F934F935F936F937F935C
S1130E408F939F93AF93BF93EF93FF938091C000D1
S1130E5087FF42C06091C600E0911403F09115032E
S1130E60309719F180919F059091A005E80FF91F23
S1130E70608301969093A00580939F052091AC0513
S1130E803091AD058217930738F110921503109233
S1130E901403809183038330F9F08091C1008F772C
S1130EA08093C1001092830317C06E3719F460E079
S1130EB081E010C0809146026D3721F482608093F6
S1130EC046020AC081FF05C08D7F8093460280E2FE
S1130ED0682780E00E94A605FF91EF91BF91AF9132
S1130EE09F918F917F916F915F914F913F912F913E
S1130EF00F900FBE0F901F901895982F8D5782302A
S1130F0068F48091460281608093460280E28927DA
S1130F10809389038DE78093790202C090937902CC
S1130F2061E070E089E792E00E940F059927089537
S1130F3078941F920F920FB60F921124FF920F9381
S1130F401F932F933F934F935F936F937F938F934D
S1130F509F93AF93BF93CF93DF93EF93FF9320912E
S1130F608702309188028091C2049091C3042817AB
S1130F70390780F4E0919C02F0919D02E20FF31F87
S1130F8080812F5F3F4F30938802209387020E9415
S1130F900305D1C010929D0210929C021092890206
S1130FA08091C1008F7B8093C100FFB6F89480913B
S1130FB0460280FF0EC08E7F809346028091890393
S1130FC08093790261E070E089E792E00E940F0566
S1130FD0AFC080918403843009F48CC0853040F420
S1130FE0823021F18330B8F5813009F09CC00DC006
S1130FF0863009F48DC0863008F483C0873009F444
S11310008EC0883009F08FC091C080919A020E94EE
S11310107D07082F83E08093840360919A02809176
S1131020AA059091AB050E94580510C08091D9047F
S11310300E947D07082F83E0809384036091D90484
S11310408091AA059091AB050E9458059093AB0539
S11310508093AA0566C0E0911603FF27EE0FFF1FD9
S1131060E056FD4F80810E947D07082F10911603E2
S1131070C12FDD27FE01EE0FFF1FE056FD4F6081FB
S11310808091AA059091AB050E9458059093AB05F9
S11310908093AA05209198022F5F20939802113023
S11310A039F580913D02E0913802F0913902E80F60
S11310B0F11DE0818F5F80933D0290913C0298176F
S11310C030F482E08093A10240E050E002C04E2F51
S11310D05527DE01AA0FBB1FFD01E156FD4F80819C
S11310E0823031F02F3F21F0A056BD4F4C9319C0F0
S11310F084E012C08091AA050E947D07082F85E034
S11311000BC08091AB050E947D07082F86E004C0C8
S11311100E944405082F87E08093840302C088E07E
S113112003C0002329F089E0809384030E94CC014A
S11311308F2D99278FBFFF91EF91DF91CF91BF91B1
S1131140AF919F918F917F916F915F914F913F915B
S11311502F911F910F91FF900F900FBE0F901F9032
S113116018951F920F920FB60F9211248F938091AE
S1131170C80087FF02C08091CE008F910F900FBEF0
S11311800F901F90189578941F920F920FB60F929C
S113119011240F900FBE0F901F90189578941F92F2
S11311A00F920FB60F9211240F900FBE0F901F9045
S11311B0189578941F920F920FB60F9211240F90E6
S11311C00FBE0F901F90189578941F920F920FB630
S11311D00F9211240F900FBE0F901F9018957894C2
S11311E01F920F920FB60F9211248F939F938091A9
S11311F09600909197009F918F910F900FBE0F9042
S11312001F90189578941F920F920FB60F92112485
S11312102F933F938F939F932FB7F8943327809105
S1131220100390911103019690931103809310037E
S11312302FBF9F918F913F912F910F900FBE0F90D1
S11312401F9018951F920F920FB60F9211248F932F
S11312508091B0008093B0008091B60081FDFCCFF6
S11312608F910F900FBE0F901F9018951F920F92A1
S11312700FB60F9211240F931F932F933F934F9305
S11312805F936F937F938F939F93AF93BF93CF930A
S1131290DF93EF93FF932EB5E0917E03F0917F03EC
S11312A0309739F080910A0390910B03E80FF91FEE
S11312B0208380910A0390910B03019690930B0372
S11312C080930A0380E00E948502C0910A03D091B2
S11312D00B0320914F0230915002C217D30708F03C
S11312E042C000916D0510916E0540917E035091AE
S11312F07F03CE010A962817390708F4C901DA01D9
S1131300AC0FBD1FF801EC0FFD1F9C0121503040B4
S113131015C00115110531F080818EBD0DB407FE95
S1131320FDCF04C01EBC0DB407FEFDCF8EB5411524
S1131330510509F08C93219611963196C217D30763
S113134040F381E00E9485020115110531F00C0F74
S11313501D1FF80180818EBD01C01EBCD0930B03FC
S1131360C0930A0311C010927F0310927E0310925F
S11313706E0510926D051092500210924F02109259
S11313800B0310920A038EB5FF91EF91DF91CF9179
S1131390BF91AF919F918F917F916F915F914F9189
S11313A03F912F911F910F910F900FBE0F901F909F
S11313B0189578941F920F920FB60F9211240F90E4
S11313C00FBE0F901F90189578941F920F920FB62E
S11313D00F9211240F900FBE0F901F9018957894C0
S11313E01F920F920FB60F9211242F933F938F9356
S11313F09F93AF93BF932FB7F894332780919102B3
S113140090919202A0919302B09194020196A11D31
S1131410B11D8093910290939202A0939302B09392
S113142094022FBFBF91AF919F918F913F912F91C4
S11314300F900FBE0F901F9018951F920F920FB62A
S11314400F9211242F933F934F935F936F937F9346
S11314508F939F93AF93BF93EF93FF938091B000CB
S11314608093B0008091B60081FDFCCF8091B300E1
S113147099270196AA27BB2720915F023091600229
S11314804091610250916202280F391F4A1F5B1F6D
S113149020935F0230936002409361025093620292
S11314A078940E941F04FF91EF91BF91AF919F9197
S11314B08F917F916F915F914F913F912F910F90F9
S11314C00FBE0F901F90189521E020939E02209349
S11314D080032091840030918500BC01C9010E94E1
S11314E0F50208951F93982F1FB7F89480914B022B
S11314F0823099F580911E02891779F580911C023A
S113150020E030E08F3F11F421E030E0232BF1F4B0
S11315109FEF90931E028F3F19F42FEF30E00DC020
S1131520282F3327F901E058FD4F808180931C0256
S11315308F3F11F490931D02908320937D0281E0EC
S113154080934B028BE00E94A50105C08FEF80932E
S11315501E0210924B0221E001C020E0812F992746
S11315608FBF90E0213009F491E081E09827892F22
S113157099271F9108950F931F93CF93DF93182FEB
S11315800FB7F89480914C02882311F40E948E02C4
S1131590802F99278FBF8FB7F894C82FDD272C2F62
S11315A080914C02882361F481E080934C02109373
S11315B09B0282E10E94A501CFBF80E090E021C0A0
S11315C0E12FFF27E756FD4F80818F3F89F4E0919B
S11315D02002E11789F40CC010931F0204C0FF27F6
S11315E0E756FD4F10831093200280E090E002C084
S11315F085E090E02FBF05C080911F028F3F79F7EF
S1131600EBCFDF91CF911F910F9108958FB7F8948D
S1131610282F3327922F80912102882331F480913F
S11316204C02823011F42FBF13C09FBF8FB7F894C0
S1131630282F332780914C02882369F482E0809319
S11316404C02109221022FBF0E948E02209A289AE7
S113165081E090E008952FBF80E00E94BB0A80E003
S113166090E00895809149028C3118F04CE150E0EB
S113167002C0482F55278CE1ECE7F5E011928A95DA
S1131680E9F7909149028091470220E030E0ACE70D
S1131690B5E00FC0E82FFF27E654FC4FE081992303
S11316A029F08F5F8A3F09F480E09150ED932F5F1A
S11316B03F4F2417350771F79093490280934702EF
S11316C04CE160E775E08FEF9FEF0E943B028823B7
S11316D019F088E00E94A5010895662351F48091D1
S11316E04902882319F00E94320B089510924A028D
S11316F0089588E00E94A50108958FB7F894282FD3
S1131700332780914A02813021F42FBF80E090E09A
S1131710089590E080914902882309F491E0992387
S113172021F02FBF81E090E0089581E080934A0288
S11317302FBF0E94320B80E090E008950F931F9317
S11317408C0180913202909133029F938F9380E0B9
S113175092E09F938F930E94621E0E947D0B0F90D4
S11317600F900F900F900B58134011F41092340205
S11317701F910F9108951F93182F80914A02882377
S113178049F4809149028D3728F081E080934A0220
S11317900E94320B8FB7F894282F33279091490277
S11317A09A3FA8F480914802E82FFF27E654FC4FA3
S11317B010838F5F809348028A3F11F4109248028D
S11317C09F5F909349022FBF80E090E003C02FBF3A
S11317D08FEF9FEF1F91089580918402823031F43E
S11317E081E0809384028DE00E94A5010895809396
S11317F0DF04882311F484E001C081E08093840233
S11318008DE00E94A50108954F925F926F927F929E
S11318108F929F92AF92BF92CF92DF92EF92FF92FC
S11318200F931F93CF93DF932C0180914E02882353
S113183009F083C180916F05853009F07EC10E9453
S1131840060B882309F479C18091BF04882309F029
S113185074C1B20182E00E945203882311F490E023
S113186003C0F20196A59F708091D202981781F06F
S11318709093D202289885EC8EBD0DB407FEFDCF5F
S11318808EB590689EBD0DB407FEFDCF8EB5289A27
S1131890E20121968981F201218140E09927982F64
S11318A088273327822B932B87749C7C81549848F8
S11318B009F441E0442301F1289886E88EBD0DB473
S11318C007FEFDCF8EB51EBC0DB407FEFDCF8EB551
S11318D0289A99278F7190702091900240918102EB
S11318E0240F312D311D43E0359527954A95E1F7B5
S11318F0281739070CF421C1289882EC8EBD0DB449
S113190007FEFDCF8EB589E08EBD0DB407FEFDCF79
S11319108EB5289A0E94BF027B018C01B20184E03B
S11319200E945203882319F4E0E0F0E006C0D201DB
S11319308C918550F201E80FF11D289881E88EBD45
S11319400DB407FEFDCF8EB51EBC0DB407FEFDCF52
S11319508EB5289A8F71893079F0289882EC8EBDE3
S11319600DB407FEFDCF8EB586E08EBD0DB407FE27
S1131970FDCF8EB5289AE1C08FB7F89499272F9A96
S113198020918400309185008FBF2F98289880E69D
S11319908EBDD2019C910DB407FEFDCF8EB59EBDC8
S11319A0792F7250773010F4672F01C067E0DE01A1
S11319B0962F4D910DB407FEFDCF8EB54EBD9150BF
S11319C0C1F76150C60FD11D6F5F21962E193F09D3
S11319D02E553F4F3901882477FC8094982C6E0C47
S11319E07F1C801E911E309719F4972F961B42C0BE
S11319F02081E1808281A3809927AA27BB27BA2F5F
S1131A00A92F982F8827332744275527522F442757
S1131A1033272227FF24002711278701FF24EE24E0
S1131A202E293F29402B512BBB24CC24DD242A29E9
S1131A303B294C295D29822B932BA42BB52B86198A
S1131A409709A809B9098383292F3A2F4B2F5527C2
S1131A5022839D014427552721838B2F9927AA2769
S1131A60BB278083C2CF28810DB407FEFDCF21960A
S1131A708EB52EBD9150B8F70DB407FEFDCF8EB5CF
S1131A80289A289882EC8EBD0DB407FEFDCF8EB542
S1131A9086E08EBD0DB407FEFDCF8EB5289A309733
S1131AA0D1F12081E1808281A3809927AA27BB27D5
S1131AB0BA2FA92F982F8827332744275527522F29
S1131AC0442733272227FF24002711278701FF24D7
S1131AD0EE242E293F29402B512BBB24CC24DD247A
S1131AE02A293B294C295D29822B932BA42BB52B26
S1131AF0860D971DA81DB91D8383292F3A2F4B2FBF
S1131B00552722839D014427552721838B2F99270D
S1131B10AA27BB278083B20181E00E94B302F201AD
S1131B2060A671A682A693A686E080936F0584E0E2
S1131B3080934E0280E090E002C085E090E0DF9167
S1131B40CF911F910F91FF90EF90DF90CF90BF90B6
S1131B50AF909F908F907F906F905F904F9008957B
S1131B60AF92BF92CF92DF92EF92FF920F931F93A7
S1131B70CF93DF938091BF04882309F402C10E94AC
S1131B80060B882309F4FDC08FB7F8949927C091F8
S1131B909502D09196028FBF1092BF0428988FE8C7
S1131BA08EBD0DB407FEFDCF8EB51EBC0DB407FE71
S1131BB0FDCF8EB5289A982F80914E02833011F074
S1131BC0873031F485E080936F0588E080934E027E
S1131BD0A92EBB24A2FE63C080914E02863019F464
S1131BE010924E0203C0882309F059C0943009F0C2
S1131BF045C0289886E88EBD0DB407FEFDCF8EB58E
S1131C001EBC0DB407FEFDCFFEB4289A2FE1F222CC
S1131C1080918102982F96959695EF2DE91B8E0F52
S1131C208093810200915B0210915C02F80184A50B
S1131C308B7F84A7B80183E00E94B302F801F6A663
S1131C400E94BF027B018C01C0905B02D0905C02B9
S1131C50B60181E00E94B302CE19DF092797CE01B5
S1131C60AA2797FDA095BA2F8E0D9F1DA01FB11F07
S1131C70F60180A791A7A2A7B3A70EC0E0915B02CB
S1131C80F0915C0284A5877F84A7E0915B02F091C8
S1131C905C0284A58D7F84A785E080934E02A3FE19
S1131CA070C080914E02843009F04EC085E080936C
S1131CB06F0510924E0280915E02833019F41092E7
S1131CC05E025FC0C091A805D091A905CE010E9413
S1131CD0E402882389F18A8129819927982F88270A
S1131CE03327822B932B87749C7C8154984821F54D
S1131CF08F812E819927982F88273327822B932B26
S1131D008F5F9F4FC9F090E080918003882309F48E
S1131D1091E0992389F012E010939E0281E0809370
S1131D208003809184009091850069E973E00E94AA
S1131D30F50210935E0225C010925E021092850295
S1131D4080E00E94F70B1DC08530D9F420919002E9
S1131D50289886E88EBD0DB407FEFDCF8EB51EBC57
S1131D600DB407FEFDCF8EB5289A8F71922F9695EC
S1131D709695891B280F2093900289E080934E0248
S1131D8008C090914E02992309F4E5C2993009F0F4
S1131D9012C2289880E28EBD0DB407FEFDCF8EB529
S1131DA01EBC0DB407FEFDCF8EB5482F552743301A
S1131DB008F496C3842F99278A970CF091C31EBC0C
S1131DC0E0915B02F0915C024083542F52505730F3
S1131DD010F4452F01C047E0DF011196242FFD01C7
S1131DE060E070E00DB407FEFDCF8EB51EBC9927F0
S1131DF081936827062E6295607F6025072E762FD3
S1131E0062956F700626669576276727660F660FBC
S1131E10660F6025215031F74150A40FB11D4F5F6B
S1131E201196E0915B02F0915C02818190E08770F1
S1131E30823009F491E0992349F020E030E0809168
S1131E405E02823081F421E030E00DC08FB7F89457
S1131E50282F332790E08091B404833008F491E074
S1131E602FBF292F3327232B09F45CC0952F941BF4
S1131E7018C00DB407FEFDCF8EB51EBC8C938D919A
S1131E806827062E6295607F6025072E762F62955F
S1131E906F700626669576276727660F660F660FAE
S1131EA06025915030F70DB407FEFDCF8EB51EBCF2
S1131EB09B012827022E2295207F2025032E322FD6
S1131EC022952F700226269532272327220F220FD0
S1131ED0220F20250DB407FEFDCF8EB51EBC28278A
S1131EE0022E2295207F2025032E322F22952F703B
S1131EF00226269532272327220F220F220F202580
S1131F000DB407FEFDCF8EB5E0915B02F0915C024B
S1131F1085A7289A15E010936F0510924E02232B83
S1131F2031F015C20DB407FEFDCF8EB5D9C2E090D5
S1131F305B02F0905C0267010894C11CD11CF7019C
S1131F40818190E0282F33272770307022303105AB
S1131F5009F491E080915E02992321F1823009F025
S1131F6025C1F7019381E091A805F091A90583812A
S1131F70981709F01BC12230310509F017C180916F
S1131F806F008D7F80936F0010928003BF0180E00B
S1131F900E94B30210925E021092850280E00E94B9
S1131FA0F70B04C18823C9F4C7010E941F038823C7
S1131FB0A1F01093D30282E08093D4021092D50250
S1131FC0F70183818093D60283ED92E00E94040C92
S1131FD0882319F483E080935E02009184001091B9
S1131FE08500C7010E941F03882311F0045E1C4F63
S1131FF010930D0300930C0380918400909185004D
S11320009801281B390B12161306A4F4809185023B
S1132010882369F490E080918003882309F491E097
S1132020992341F0C9010E94640A80E801C08068D4
S113203080938502F601808527819927582F4427AC
S11320403327422B532B80916302282F3327F90126
S1132050EE0FFF1FEC53FB4F808191817091810340
S11320608417950769F4F901EE55FA4F80818717B3
S113207009F467C0872F8F5F8093810380831DC01D
S113208000E010E080E090E0C4ECD4E0E2EAF5E0A7
S1132090DF01682F9C01888199818417950779F461
S11320A020936302909181038C91891709F449C0AC
S11320B0892F8F5F809381038C9300E829C08081EE
S11320C0972F981B091710F4092F122F6F5FC9015E
S11320D0019611962296319685309105D1F6653098
S11320E0B9F410936302A12FBB27FD01EE0FFF1F6C
S11320F0EC53FB4F51834083809181038F5F809326
S11321008103FD01EE55FA4F8083A255BA4F1C920C
S113211090918103892F8F778F3779F40F3768F087
S1132120E2EAF5E0292F207880818F6789132083E4
S1132130319685E0E73AF807B9F780916302282FD2
S11321403327F6019281A22FBB27FD01E255FA4FF6
S1132150808180FF07C0FD01EB54FB4F80819817FD
S113216029F102C081608083AB54BB4F9C93DFB6DE
S1132170F8948091B4048330B0F4E091D804E80F6B
S1132180E33008F0E350FF27EE0FFF1FEF5AFD4F37
S113219000811181F182E0828F5F8093B4048EE02C
S11321A00E94A50178018D2D99278FBFF0925C02C2
S11321B0E0925B02C3C0892F8150833008F09CC039
S11321C081508230E0F430916F053130C1F420E069
S11321D080918003882309F421E0222381F02F9841
S11321E083E080939E0230938003809184009091D9
S11321F085006BE273E00E94F50282E068C09330D0
S113220009F042C080916F05833009F097C00E94A5
S1132210060B8823C9F128988FE88EBD0DB407FEFC
S1132220FDCF8EB51EBC0DB407FEFDCF8EB5289A2A
S11322308091810080648093810080E286BB8091DC
S11322406F00806280936F0090917C02289888ECE4
S11322508EBD0DB407FEFDCF8EB590669EBD0DB448
S113226007FEFDCF8EB5289A289882EC8EBD0DB45A
S113227007FEFDCF8EB586E08EBD0DB407FEFDCF03
S11322808EB5289A84E023C080914E02815082301A
S113229000F580916F058530E1F40E94060B8823D8
S11322A0C1F0289882EC8EBD0DB407FEFDCF8EB52B
S11322B083E08EBD0DB407FEFDCF8EB5289A8091C4
S11322C06F008F7D80936F001092BF0483E0809332
S11322D06F0590914E02913041F480916F058330E7
S11322E0B1F52F9A90936F0525C0923039F58091FE
S11322F06F05833061F51EC0973001F50E94060B0F
S11323008823E1F090917C02289888EC8EBD0DB46E
S113231007FEFDCF8EB590669EBD0DB407FEFDCFC2
S11323208EB5289A80916F05853021F484E08093DE
S11323306F0504C088E080934E0204C080914E0271
S1132340883029F410924E028CE00E94A5018091FD
S11323504E02882309F580916F058530D1F4809170
S1132360BF048823B1F480915E02882391F48091A4
S11323708502882371F490E080918003882309F416
S113238091E0992331F00E94EC0B80914E02882356
S113239019F480E10E94A50180918003823009F044
S11323A092C010928003F0909E02F2E0FF1609F4AE
S11323B066C023E0F21609F46AC081E0F81609F059
S11323C082C020910C0330910D0380918400909180
S11323D0850040918502403829F4109285020E94BC
S11323E0EC0B71C08901081B190B47FF03C01016C1
S11323F01106ECF0C0918202D091830280915E02BA
S11324008823A9F4CE010E94040C9927882351F44F
S11324108CA58E7F8CA7F0925E02D093A905C09301
S1132420A80529C09927F82E882329F102C065E060
S1132430F62E20918502822F99278F77019759F4E0
S1132440207822602093850280E198E00E945E0358
S11324500E94640A38C027FF0AC0101611063CF413
S113246080E880938502C8010E94640A02C0109229
S113247085028F2D09C083E08093850224C01092C9
S11324805E021092850280E00E94F70B1CC08091CE
S11324906F05823019F4F0926F0513C080914E02DB
S11324A0863079F410924E02289881E88EBD0DB4DE
S11324B007FEFDCF8EB51EBC0DB407FEFDCF8EB555
S11324C0289A0E9485128FB7F894282F3327809179
S11324D07B02813061F081E080937B022FBF4ACB85
S11324E0289A85E080936F0510924E0230CF1092A7
S11324F07B022FBFDF91CF911F910F91FF90EF903F
S1132500DF90CF90BF90AF9008958FB7F894282FA5
S1132510332780917B02882329F0806880937B0293
S11325202FBF089581E080937B022FBF0E94B00DDE
S1132530089578941F920F920FB60F9211242F933F
S11325403F934F935F936F937F938F939F93AF9337
S1132550BF93EF93FF93E6E8F0E0808191812081BF
S113256031818FB7F894992730939602209395027E
S113257021E02093BF048FBF0E948512FF91EF9149
S1132580BF91AF919F918F917F916F915F914F9187
S11325903F912F910F900FBE0F901F901895789434
S11325A01F920F920FB60F9211242F933F934F93C4
S11325B05F936F937F938F939F93AF93BF93EF93A7
S11325C0FF9380916F008D7F80936F0078949FB705
S11325D0F89480918003813019F482E08093800321
S11325E0892F99278FBF0E948512FF91EF91BF9188
S11325F0AF919F918F917F916F915F914F913F9197
S11326002F910F900FBE0F901F9018958FB7F894CD
S1132610282F332780917B02815080937B0280385E
S113262011F02FBF089581E080937B022FBF0E9499
S1132630B00D08951F938FB7F894992720917B02CA
S11326402F5F20937B028FBF80918402882311F037
S113265015E023C080914E028823E1F480916F0538
S1132660813049F490E080918003882309F491E05B
S1132670992381F005C0853019F489E090E00CC0FD
S113268083E080934E020E94851285E08093840249
S113269010E003C085E090E0182F0E940613812FFC
S11326A099271F9108951F93FC018FE382878091DE
S11326B04D028F5F80934D0283832FB7F8943327A5
S11326C080917B028F5F80937B022FBF8091840275
S11326D0882311F015E00DC0F0938603E093850381
S11326E081E080938402109282038DE00E94A50110
S11326F010E00E940613812F99271F9108951F93BC
S1132700CF93DF93182FFA01A22F2D3118F086E012
S113271090E08EC0EA01219689812181B0E0992759
S1132720582F44273327422B532BCA0187749C7C90
S11327308154984809F4B1E0BB2349F4CA01807379
S11327409070816498688183892F99278983A35F16
S1132750A0832FB7F89433278091190290911A021D
S11327602FBF8087892F992781872FB7F894332724
S113277080911B022FBF9927848315821387668358
S1132780872F992787838FB7F894282F3327809131
S11327904B02882371F482E080934B0210921E0254
S11327A02FBFCF010E9453139927182F882399F024
S11327B00FC02FBFF0937F02E0937E028FB7F8948F
S11327C0C82FDD272C2F80914B02882399F406C053
S11327D080E00E94720A812F99272AC081E08093A9
S11327E04B0210927D028BE00E94A501CFBF80E0D6
S11327F090E01EC0809180028F3F89F4E0911D0219
S1132800EE2369F010C010921C0204C0FF27E058A8
S1132810FD4F108210921D0280E090E002C085E01E
S113282090E02FBF05C080911C028F3F79F7EBCF5A
S1132830DF91CF911F910895EF92FF920F931F9311
S1132840E0911F03E1FF88C0209117033091180322
S11328504091190350911A03E0901B03F0901C035C
S113286000911D0310911E03621B730B840B950BC7
S11328706E157F058007910708F46EC0E0FF04C061
S1132880ED7FE0931F030CC02E0D3F1D401F511F11
S113289020931703309318034093190350931A039A
S11328A020913202309133022F5F3F4F3093330235
S11328B02093320280913402882309F04DC0809124
S11328C00D0290910E0280939803892F992780938B
S11328D0970320939A03832F9927809399038091D8
S11328E00F029091100280939C03892F9927809363
S11328F09B038FEF809391038093920386E08093F0
S113290096038091D3049091D404892B29F54BE844
S113291053E05093D4044093D30483E180938B0316
S1132920809122028823A9F01092220226E06FEF00
S11329307FEF86E00E947F139927282F882349F090
S113294081E0809322021092D4041092D3042223B3
S113295019F481E0809334028AE00E94A5011F915A
S11329600F91FF90EF9008950F931F93CF93DF93F0
S1132970182FEB01042FE82FFF27EE0FFF1FED5256
S1132980FB4F1182108210922202E091D304F09145
S1132990D404309721F08091970280FF0EC081E02B
S11329A08093220203C084E10E94A5011123B9F49B
S11329B0602FCE010E949E0B12C020812D50332720
S11329C067817727762F662786819927682B792B4D
S11329D0AF0183850E947F13882341F3E4CFDF9105
S11329E0CF911F910F9108952F923F924F925F9232
S11329F06F927F928F929F92AF92BF92CF92DF920B
S1132A00EF92FF920F931F93CF93DF93CDB7DEB76F
S1132A1029970FB6F894DEBF0FBECDBFE82FFF276E
S1132A20E531F10508F0B9C4EA59FF4FEE0FFF1F75
S1132A300590F491E02D09948091DA04882309F437
S1132A40ACC490E011E008C080919702882309F497
S1132A50A4C490E011E072C42091DA04812F82238F
S1132A60C1F0E92FFF27EE0FFF1FE25FFC4F40810B
S1132A70518111821082812F809528232093DA04BA
S1132A80992339F463E0CA010E946D0B110F91E0A0
S1132A90E3CF9F5F983008F080C4110FDDCF109111
S1132AA01102E12FFF27EE0FFF1FE25FFC4FE080D2
S1132AB0F180118210820E94C504112309F06DC4B3
S1132AC061E0C70145C18FB7F8941092A105209128
S1132AD0840340E0283009F441E030E0293009F46F
S1132AE031E0442311F4332351F010928403E09134
S1132AF01603FF27EE0FFF1FE156FD4F10829927A3
S1132B008FBF442311F4332331F19FB7F89480919C
S1132B10D9048F5F8093D90480919A02833479F425
S1132B202091030380910203821779F0822F8F5F33
S1132B3080930303863048F01092030306C0A0E09C
S1132B40442309F4A1E071E002C0A0E070E0892F01
S1132B5099278FBF06C0222311F0FF246DC0A0E087
S1132B6070E08FB7F8949927209135028FBF222304
S1132B7041F08FB7F89499272AE0209384038FBFFC
S1132B8042C08FB7F894992760919F024091A102A7
S1132B908FBF8FB7F894282F332750E0909102030A
S1132BA080910303981709F451E02FBF552341F591
S1132BB0662331F55FB7F89482E080939F028FB764
S1132BC0F894282F332740E0909102038091030367
S1132BD0981709F441E02FBF442311F080E006C0A8
S1132BE0E0910303FF27EE5FFC4F82818093A002F4
S1132BF083E480939A0210921603852F99270EC0BE
S1132C004150423010F0FF240CC08FB7F89499273C
S1132C1025E420939A0221E0209316038FBF01E05C
S1132C20F02E772349F08FB7F8949927A0933E02AA
S1132C308FBF86E00E94A5018FB7F894082F112753
S1132C40809184038A3021F40E94F1040FBFA5C34C
S1132C500FBFFF2009F4A1C32FB7F89433271092B4
S1132C60AB051092AA051092980281E08093840328
S1132C702FBF0E944405882309F48FC38FB7F894AB
S1132C80992729E0209384038FBF0E94CC0185C338
S1132C908091C1008F7B8093C1008091C1008F77A8
S1132CA08093C10010928303109289028091C10025
S1132CB088608093C1008091C10080618093C100CD
S1132CC08091C10080688093C1008FB7F8949927E0
S1132CD010928403109286029FC285E069C080919D
S1132CE0C100877F8093C1008091C1008F7E809353
S1132CF0C10053C310923B0210923A028FB7F8946A
S1132D009927F0903E028FBF80913F02882311F0F3
S1132D1013E0F12E20913802309139028091400263
S1132D20882309F03AC380911102882309F035C33E
S1132D3000910E0310910F030217130709F02DC31E
S1132D4010920F0310920E030E94C5046F2DC80148
S1132D500E946D0B22C38FB7F894992720914302E8
S1132D603091440240915D028FBF8FB7F894E42FF5
S1132D70FF27EE0FFF1FED5EFD4F3183208320916F
S1132D803602442311F02B7F01C02D7F209336029D
S1132D901092410299278FBF00C34CE160E775E0B0
S1132DA08FEF9FEF0E943B02882309F4F6C288E06C
S1132DB00E94A501F2C280917A02882361F52091D4
S1132DC0CF043091D0044091D1045091D204EFB794
S1132DD0F894FF276091570270915802809159022C
S1132DE090915A02E090DB04F090DC040091DD0441
S1132DF01091DE046E0D7F1D801F911FEFBF209385
S1132E00CF043093D0044093D1045093D204109251
S1132E107A020E94AB040E94F6033AC00E94F603B1
S1132E207B018C018FB7F894992710928B028FBF86
S1132E3080911F0381FFB1C2809117039091180301
S1132E40A0911903B0911A03A8019701281B390B0B
S1132E504A0B5B0BDA01C90120911B0330911C035F
S1132E6040911D0350911E03281B390B4A0B5B0B29
S1132E702F3F6FEF36076FEF46076FE7560709F4EA
S1132E808CC212161306140615062CF0C801B701DD
S1132E900E941C1482C22093CF043093D004409328
S1132EA0D1045093D20481E080937A02C801B7011F
S1132EB00E94AB0472C22FB7F894332780917D022D
S1132EC080931E0282E080934B022FBF80911E02EA
S1132ED0882309F062C280917E0290917F020E9451
S1132EE05313082F1127002309F457C280E00E94CE
S1132EF0720A20917E0230917F02809122028823FF
S1132F0009F04BC26091D3047091D4046217730723
S1132F1009F043C2402F3FC2809184021092840280
S1132F20853069F40E94F603AB01BC01EE240AEF7C
S1132F3010E020E030E080E00E94D7032EC286300B
S1132F4009F42BC2873009F428C28093840225C275
S1132F502FB7F894332780917B028F5F80937B0295
S1132F602FBF40918402413081F5809182038F5FAD
S1132F7080938203863048F520918503309186033F
S1132F80809185028823C1F490E080918003882396
S1132F9009F491E0992381F0309383022093820213
S1132FA0409385028BED91E10E945E030E94640AC6
S1132FB01092DF0483E004C085E08093DF0482E0A4
S1132FC0809384020E940613E8C1109284020E9436
S1132FD006131091DF04E0908503F0908603F70157
S1132FE082858F3309F0D9C180E00E94720A8091F2
S1132FF02202882309F0D1C16091D3047091D404D2
S11330006E157F0509F0C9C1412FC5C18FB7F8946A
S1133010282F33278091B404882309F48DC1E091CB
S1133020D804FF27EE0FFF1FEF5AFD4FA081B18197
S11330302FBFFD018285978126818F3309F047C018
S113304063857C91892F9927582F4427822F9927AC
S1133050482B592B8FB7F894992720911902309156
S11330601A028FBF4217530721F04F5F5F4F09F0D9
S113307048C0663009F045C0733109F042C0FD0113
S1133080808921899927982F88273327822B932B8E
S113309020910F02309110028217930709F031C07A
S11330A087859FB7F894282F332720FF02C01298F2
S11330B001C0129A21FF02C0119801C0119A22FF87
S11330C002C0109801C0109A892F992719C0892F1E
S11330D09927582F4427822F9927482B592B8FB78C
S11330E0F89499272091190230911A028FBF421740
S11330F0530719F04F5F5F4F21F48FB7F894992766
S11331008FBF9FB7F8948091D804E82FFF27EE0F64
S1133110FF1FEF5AFD4FB183A0838F5F8093D804C4
S1133120833010F01092D8048091B40481508093BD
S1133130B404892F99278FBF69CF2FB72983F894B7
S113314020908C0230908D0240908E0250908F021D
S11331506624772488242EE4A22E93E8B92ECC2466
S1133160DD24EE24FF2400E010E0222D332D442D35
S1133170552D662D772D882D90E00E944E1C2A83B4
S11331803B834C835D836E837F8388879987822EFC
S1133190932EA42EB52E2401350100E20E944C1D6D
S11331A0A22EB32EC42ED52EA30192015695479577
S11331B0379527952A0D3B1D4C1D5D1D57FF05C0F6
S11331C05F772F5F3F4F4F4F5F4F20938C023093B9
S11331D08D0240938E0250938F026981862F992726
S11331E08FBF8FB7F8949927309388032093870370
S11331F013C08FB7F894992710927F0310927E031F
S113320010926E0510926D051092500210924F02AA
S113321010920B0310920A03BECD2FB7F8943327F4
S113322080919B028093210282E080934C022FBF05
S113323080912102882309F0B0C0209A289A8091B5
S11332406F05882309F075C08EEF91E00197019610
S11332500197E1F716982F9886E090E00197019680
S11332600197E1F7169A289883EC8EBD0DB407FEFA
S1133270FDCF8EB51EBC0DB407FEFDCF8EB5289ACA
S1133280289882EC8EBD0DB407FEFDCF8EB588E084
S11332908EBD0DB407FEFDCF8EB5289A8EEF91E05A
S11332A0019701960197E1F728988EEC8EBD0DB435
S11332B007FEFDCF8EB58DE48EBD0DB407FEFDCFA8
S11332C08EB5289A289889EC8EBD0DB407FEFDCFE3
S11332D08EB587EC8EBD0DB407FEFDCF8EB5289A52
S11332E0289885EC8EBD0DB407FEFDCF8EB580E821
S11332F08EBD0DB407FEFDCF8EB5289A1092D20272
S11333008BE080937C02289888EC8EBD0DB407FE78
S1133310FDCF8EB58BE68EBD0DB407FEFDCF8EB509
S1133320289A2F9A81E080936F0580E00E948103A0
S113333034C00E94851231C02FBF2FC02091970244
S1133340812F8223C1F0E92FFF27EE0FFF1FED52DB
S1133350FB4F4081518111821082812F8095282357
S113336020939702992339F463E0CA010E949E0BCB
S1133370110F91E0E3CF9F5F983078F4110FDECF07
S113338080912202E82FFF27EE0FFF1FED52FB4F23
S11333906081718141E00E94B41429960FB6F894BB
S11333A0DEBF0FBECDBFDF91CF911F910F91FF9074
S11333B0EF90DF90CF90BF90AF909F908F907F90D1
S11333C06F905F904F903F902F9008958091D50417
S11333D08F3FB1F0282F3327F901EC59FD4F80813D
S11333E08093D5048F3F11F48093A7058FEF8083DA
S11333F02F3F31F0822F0E94F41481E090E0089571
S113340080E090E00895EF920F931F93CF93DF93A2
S1133410EFB6F89414BE88E10FB6F8948093600078
S1133420109260000FBE45E150E06FEF70E084E65B
S113343092E00E945B1E8FEF8093D5048093A705D2
S113344056985E9854985C9880916F008F7D809315
S11334506F00209A289A279A2F980E9A169A83EA30
S113346092E090935C0280935B02109290028AE552
S11334708093810281E08093810080E28093B60092
S113348083E08093B10080918400909185004AE7A5
S113349020918400309185002817390708F44150A1
S11334A0442311F0C901F4CF9091B2008091B2008D
S11334B08917E1F320918400309185009091B20046
S11334C08091B2008917E1F3809184009091850086
S11334D0821B930B409665E0969587956A95E1F774
S11334E09093D7048093D6041092B1008091B100D8
S11334F080938100809181008093B6001092B20085
S113350010928500109284008FEF87BB87B386BB2F
S11335108091B6008571E1F70A9A099A089A129A7D
S1133520119A109A18B88FEF87B90C9814981092C2
S113353085001092840080916F00816080936F00F9
S113354080918100887F8260809381001092950031
S11335501092940080917100816080937100809139
S11335609100887F8260809391000E94E6198823ED
S1133570E1F78FEF8093990280E00E94BB0A2091CB
S11335800D0230910E02882309F06EC12F5F3F4F68
S1133590C901AA27BB2780938C0290938D02A09324
S11335A08E02B0938F0220E030E080EE94E090939E
S11335B05202809351028F96909354028093530247
S11335C08EE395E090935602809355028FEF9FEF20
S11335D09093C5048093C4049093C7048093C60455
S11335E09093C9048093C8049093CB048093CA0435
S11335F09093CD048093CC0490E0222309F491E0CD
S113360080910D02992309F43FC18295807F8093B4
S11336104D028FEF8093800200E010E08091B600AD
S113362080628093B6008091B60081FDFCCF82E079
S11336308093B0008091B60080FDFCCF83E080933E
S1133640B1008091B60083FDFCCF86EE8093B30079
S1133650809170008260809370000E941F0483E256
S113366092E09093B6058093B50512E006E0609170
S1133670D6047091D704882799275CE0660F771FDA
S1133680881F991F5A95D1F720E031EE40E050E0B1
S11336900E94E31D215030402093C400832F9927BA
S11336A08093C5001093C0000093C2001092C10023
S11336B02093CC008093CD001093C8000093CA00DF
S11336C01092C90084E490E09093C1048093C004F4
S11336D010929F021092A1028AE0809384031092B8
S11336E0980210929A021092D9041092AB0510928B
S11336F0AA051092A105109216031092BB04109211
S1133700BA0484E08093860210928A031092CE0455
S113371010928A0210921303109212031092030360
S11337201092020310924A020E94E6198823E1F7DC
S11337308E2D99278FBF78948FB7F894282F33272D
S1133740922F809184038A3031F0809186028430F4
S113375011F02FBF04C09FBF83E00E94A5010E9407
S11337601A130E94F603AB01BC01EE240AEF10E029
S113377020E030E080E00E94D7038FB7F894482F10
S1133780552757C080917000992783709070892BBA
S113379019F4E5E0F0E014C08091B6008A71E1F715
S11337A08091B3009091B200891B8C3038F08091E5
S11337B0B200853F18F4E3E0F0E002C0E2E0F0E09C
S11337C080916E00867009F580916F008E72E9F425
S11337D0809171008E72C9F40CB407FC16C08091FC
S11337E0C100887191F48091C900887171F480914D
S11337F0BC0082FD0AC080917A0087FF03C081E08B
S113380090E005C085E090E002C080E090E023B73E
S11338108E1708F4E82FFF27EA50FD4FE491207F2C
S11338202160E22BE3BF78948895F89483B78E7F68
S113383083BF8091D5048F3F09F4A4CF282F332769
S1133840F901EC59FD4F80818093D5048F3F11F429
S11338508093A7058FEF80832F3F09F493CF4FBF49
S1133860822F0E94F41489CF2F5F3F4FC901AA27EA
S1133870BB2780938C0290938D02A0938E02B09309
S11338808F0221E030E091CE8295807F80934D02BB
S11338908FEF8093800201E010E0C0CEACE2B0E094
S11338A0E4E5FCE10C94241E222E332E442E552EE6
S11338B0662E772E882E992EFE013196A8E011925D
S11338C0AA95E9F729823A824B825C826D827E82D4
S11338D08F829886FE013996B8E01192BA95E9F77D
S11338E0A986BA86CB86DC86ED86FE860F87188B82
S11338F089819A81AB81BC8189A79AA7ABA7BCA710
S11339007C018D018FEF9FEFA0E0B0E0E822F92267
S11339100A231B2389A59AA5ABA5BCA51D01442494
S1133920552489859A85AB85BC858DA39EA3AFA3B9
S1133930B8A75C016D018FEF9FEFA0E0B0E0A82273
S1133940B922CA22DB228DA19EA1AFA1B8A53D0157
S113395088249924C801B701A60195010E94051E77
S113396069A37AA38BA39CA3C801B701A401930103
S11339700E94051E7B018C01C201B101A6019501C3
S11339800E94051E5B016C01C201B101A4019301F7
S11339900E94051E3B014C01EA0CFB1C0C1D1D1D65
S11339A089A19AA1ABA1BCA19D01442755272E0D45
S11339B03F1D401F511F2A153B054C055D0540F472
S11339C080E090E0A1E0B0E0680E791E8A1E9B1EA4
S11339D0CA01AA27BB27860D971DA81DB91D8D8F67
S11339E09E8FAF8FB8A3A9013327222789A19AA15B
S11339F0ABA1BCA1A070B070280F391F4A1F5B1F78
S1133A00298F3A8F4B8F5C8FA98CBA8CCB8CDC8C32
S1133A10ED8CFE8C0F8D18A1FE01719698E0119229
S1133A209A95E9F7ED8AFE8A0F8B188F2D813E81D6
S1133A304F8158856DA17EA18FA198A50E94051E76
S1133A403B014C012D853E854F85588969A57AA592
S1133A508BA59CA50E94051E2D893E894F89588DF2
S1133A60260F371F481F591F260D371D481D591D86
S1133A702D8B3E8B4F8B588F6D887E888F88988CCA
S1133A802A2D3B2D4C2D5D2D662D772D882D992DBE
S1133A90E2E1AC960C94401EA0E1B0E0E2E5FDE169
S1133AA00C94241E222E332E442E552E662E772E51
S1133AB0882E992E002309F466C088E0FE01319611
S1133AC011928A95E9F729833A834B835C836D834A
S1133AD07E838F829887E0E2E01B1E16CCF52D8151
S1133AE03E814F815885602F772767FD7095DA01F5
S1133AF0C901062E04C0B695A795979587950A9493
S1133B00D2F78D879E87AF87B88B04C0220F331FEF
S1133B10441F551FEA95D2F789819A81AB81BC81F4
S1133B2004C0B695A795979587956A95D2F7282BE3
S1133B30392B4A2B5B2B29873A874B875C8729844F
S1133B403A844B845C846D847E848F8498881BC003
S1133B501D861E861F86188A2E2F332727FD309533
S1133B60309521953F4F8D819E81AF81B88504C0EA
S1133B70B695A795979587952A95D2F789879A87B9
S1133B80AB87BC87DCCF222D332D442D552D662DDC
S1133B90772D882D992DE2E160960C94401EAA1B86
S1133BA0BB1B51E107C0AA1FBB1FA617B70710F024
S1133BB0A61BB70B881F991F5A95A9F78095909556
S1133BC0BC01CD010895A1E21A2EAA1BBB1BFD0165
S1133BD00DC0AA1FBB1FEE1FFF1FA217B307E407E8
S1133BE0F50720F0A21BB30BE40BF50B661F771F40
S1133BF0881F991F1A9469F7609570958095909520
S1133C009B01AC01BD01CF010895629FD001739F58
S1133C10F001829FE00DF11D649FE00DF11D929F64
S1133C20F00D839FF00D749FF00D659FF00D9927A3
S1133C30729FB00DE11DF91F639FB00DE11DF91FC7
S1133C40BD01CF01112408952F923F924F925F92AC
S1133C506F927F928F929F92AF92BF92CF92DF9298
S1133C60EF92FF920F931F93CF93DF93CDB7DEB7FD
S1133C70CA1BDB0B0FB6F894DEBF0FBECDBF099491
S1133C802A88398848885F846E847D848C849B84E8
S1133C90AA84B984C884DF80EE80FD800C811B81F6
S1133CA0AA81B981CE0FD11D0FB6F894DEBF0FBE25
S1133CB0CDBFED010895DC0101C06D93415050402A
S1133CC0E0F70895A2E0B0E0E8E6FEE10C94341ECB
S1133CD0FE01379661917191FA83E983AF01809176
S1133CE0B5059091B6050E94791EE2E022960C94E7
S1133CF0501EABE0B0E0EFE7FEE10C94261E3C0161
S1133D004B016A01FC0117821682838181FD03C085
S1133D108FEF9FEFDAC1F3013381F40133FD859115
S1133D2033FF81914F01882309F4CCC1853239F4E2
S1133D3033FD859133FF81914F01853229F4B3011D
S1133D4099270E947F20E7CF00E0442455244AE0CD
S1133D500032B0F48B3269F08C3228F4803251F0A6
S1133D60833271F40BC08D3239F0803349F4016031
S1133D7028C00260046025C0086023C0006121C01F
S1133D8007FD29C0282F20532A3078F406FF06C0E7
S1133D90549EC0011124522E580E13C0449EC001DB
S1133DA01124422E480E00620CC08E3221F406FD0E
S1133DB089C1006406C08C3611F4006802C08836DC
S1133DC051F4F40133FD859133FF81914F01882330
S1133DD009F46FC0BDCF982F8554833018F08052FA
S1133DE0833038F424E030E0C20ED31E8FE389839D
S1133DF00FC0933631F0933799F0933509F05BC0D7
S1133E0023C0F6018081898322E030E0C20ED31EF4
S1133E107E010894E11CF11C51E0A52EB12C12C0C6
S1133E20F601E080F18006FD03C06FEF7FEF02C072
S1133E30652D772722E030E0C20ED31EC7010E9411
S1133E4074205C010F7713C0F601E080F18006FD59
S1133E5003C06FEF7FEF02C0652D772722E030E0CB
S1133E60C20ED31EC7010E9469205C01006803FFD3
S1133E7007C01BC0B30180E290E00E947F204A94F7
S1133E80842D9927A816B906A8F30FC0F70107FDDA
S1133E90859107FF81917F01B30199270E947F20BB
S1133EA041104A940894A108B108A114B10471F70F
S1133EB006C190E03EC0943611F0993691F507FFA3
S1133EC00AC0F601608171818281938124E030E02F
S1133ED0C20ED31E0DC0F601808191819C01B901EF
S1133EE0882777FD8095982F42E050E0C40ED51EB8
S1133EF04FE6B42EB02297FF09C090958095709537
S1133F0061957F4F8F4F9F4F50E8B52A8E010F5F09
S1133F101F4F2AE030E0A8010E94AC20A82EA01A6E
S1133F204DC0953731F43FEEF32EF0222AE030E015
S1133F3023C029EFF22EF0229F3661F0903720F44F
S1133F40983509F0BFC012C0903739F0983709F09E
S1133F50B9C005C028E030E00FC080E1F82AF4FEC3
S1133F6002C094E0F92A20E130E006C0F4FE02C069
S1133F70E6E0FE2A20E132E0F7FE0AC0F6016081A5
S1133F8071818281938144E050E0C40ED51E0BC040
S1133F90F60180819181AC01BA0188279927E2E07A
S1133FA0F0E0CE0EDF1E8E010F5F1F4FA8010E94AE
S1133FB0AC20A82EA01A8FE7B82EBF20B6FE10C0E2
S1133FC0FEEFBF22A51460F42B2D332724FF1AC063
S1133FD022FF02C0052D09C02FEEB222052D01C01B
S1133FE00A2D2B2D332724FF0EC0FE01EA0DF11DEF
S1133FF08081803319F439EEB32209C00F5F22FFA8
S113400006C004C0052D822F867809F00F5FEB2CC3
S1134010FF24E3FC14C0E0FE0FC0041510F05A2C7A
S11340200BC0542C501A5A0C042D06C0B30180E264
S113403090E00E947F200F5F0415C0F304C00415B4
S113404010F4401A01C04424E4FE10C0B30180E31C
S113405090E00E947F20E2FE1EC0E1FE03C088E5DE
S113406090E002C088E790E0B3010CC08E2D867802
S113407091F0E1FE02C08BE201C080E2B7FC8DE268
S1134080B30199270E947F2006C0B30180E390E02A
S11340900E947F205A94A514C0F3AA94FE01EA0D4D
S11340A0F11D8181B30199270E947F20AA2039F054
S11340B0F4CFB30180E290E00E947F204A94442030
S11340C0C1F729CEF30186819781E0E12B960C9408
S11340D0421EFC010590615070400110D8F7809594
S11340E090958E0F9F1F0895FC01615070400190C0
S11340F00110D8F7809590958E0F9F1F08950F9308
S11341001F93CF93DF938C01EB018B81992781FF60
S11341101BC082FF0DC02E813F818C819D81281799
S1134120390764F4E881F9810193F983E88306C0CF
S1134130E885F985802F0995892B31F48E819F813B
S113414001969F838E8302C00FEF1FEFC801DF919A
S1134150CF911F910F910895FA01AA27283051F1A8
S1134160203181F1E8946F936E7F6E5F7F4F8F4FA4
S11341709F4FAF4FB1E03ED0B4E03CD0670F781F03
S1134180891F9A1FA11D680F791F8A1F911DA11DE8
S11341906A0F711D811D911DA11D20D009F4689421
S11341A03F912AE0269F11243019305D3193DEF6C9
S11341B0CF010895462F4770405D4193B3E00FD07F
S11341C0C9F7F6CF462F4F70405D4A3318F0495D6A
S11341D031FD4052419302D0A9F7EACFB4E0A6954D
S11341E09795879577956795BA95C9F7009761056F
S11341F0710508959B01AC010A2E069457954795C5
S113420037952795BA95C9F7620F731F841F951FB9
S1094210A01D0895FFCF7C
S1134216436F756E7465723A2025750A000100A411
S11342260101FF20034F032003010022FFFFFFFFCC
S1134236FFFF010000000200000000BB0B000000AD
S1054246000072
S9030000FC
